{
	"_format": "hh-sol-artifact-1",
	"contractName": "Bridge",
	"sourceName": "contracts/Bridge.sol",
	"abi": [
		{
			"inputs": [
				{
					"internalType": "address[]",
					"name": "initialSet",
					"type": "address[]"
				}
			],
			"stateMutability": "nonpayable",
			"type": "constructor"
		},
		{
			"anonymous": false,
			"inputs": [
				{
					"indexed": true,
					"internalType": "address",
					"name": "sender",
					"type": "address"
				},
				{
					"indexed": true,
					"internalType": "address",
					"name": "token",
					"type": "address"
				},
				{
					"indexed": false,
					"internalType": "uint256",
					"name": "amount",
					"type": "uint256"
				},
				{
					"indexed": false,
					"internalType": "uint8",
					"name": "decimals",
					"type": "uint8"
				},
				{
					"indexed": false,
					"internalType": "bytes32",
					"name": "name",
					"type": "bytes32"
				},
				{
					"indexed": false,
					"internalType": "bytes32",
					"name": "symbol",
					"type": "bytes32"
				},
				{
					"indexed": false,
					"internalType": "int8",
					"name": "workchain",
					"type": "int8"
				},
				{
					"indexed": true,
					"internalType": "bytes32",
					"name": "address_hash",
					"type": "bytes32"
				}
			],
			"name": "Lock",
			"type": "event"
		},
		{
			"anonymous": false,
			"inputs": [
				{
					"indexed": false,
					"internalType": "int256",
					"name": "oracleSetHash",
					"type": "int256"
				},
				{
					"indexed": false,
					"internalType": "address[]",
					"name": "newOracles",
					"type": "address[]"
				}
			],
			"name": "NewOracleSet",
			"type": "event"
		},
		{
			"anonymous": false,
			"inputs": [
				{
					"indexed": true,
					"internalType": "address",
					"name": "receiver",
					"type": "address"
				},
				{
					"indexed": true,
					"internalType": "address",
					"name": "token",
					"type": "address"
				},
				{
					"indexed": false,
					"internalType": "uint256",
					"name": "amount",
					"type": "uint256"
				},
				{
					"indexed": true,
					"internalType": "bytes32",
					"name": "tx_hash",
					"type": "bytes32"
				}
			],
			"name": "Unlock",
			"type": "event"
		},
		{
			"inputs": [
				{
					"internalType": "bytes32",
					"name": "digest",
					"type": "bytes32"
				},
				{
					"components": [
						{
							"internalType": "address",
							"name": "signer",
							"type": "address"
						},
						{
							"internalType": "bytes",
							"name": "signature",
							"type": "bytes"
						}
					],
					"internalType": "struct TonUtils.Signature",
					"name": "sig",
					"type": "tuple"
				}
			],
			"name": "checkSignature",
			"outputs": [],
			"stateMutability": "pure",
			"type": "function"
		},
		{
			"inputs": [
				{
					"internalType": "bytes32",
					"name": "",
					"type": "bytes32"
				}
			],
			"name": "finishedVotings",
			"outputs": [
				{
					"internalType": "bool",
					"name": "",
					"type": "bool"
				}
			],
			"stateMutability": "view",
			"type": "function"
		},
		{
			"inputs": [
				{
					"components": [
						{
							"internalType": "address",
							"name": "receiver",
							"type": "address"
						},
						{
							"internalType": "address",
							"name": "token",
							"type": "address"
						},
						{
							"internalType": "uint64",
							"name": "amount",
							"type": "uint64"
						},
						{
							"components": [
								{
									"components": [
										{
											"internalType": "int8",
											"name": "workchain",
											"type": "int8"
										},
										{
											"internalType": "bytes32",
											"name": "address_hash",
											"type": "bytes32"
										}
									],
									"internalType": "struct TonUtils.TonAddress",
									"name": "address_",
									"type": "tuple"
								},
								{
									"internalType": "bytes32",
									"name": "tx_hash",
									"type": "bytes32"
								},
								{
									"internalType": "uint64",
									"name": "lt",
									"type": "uint64"
								}
							],
							"internalType": "struct TonUtils.TonTxID",
							"name": "tx",
							"type": "tuple"
						}
					],
					"internalType": "struct TonUtils.SwapData",
					"name": "data",
					"type": "tuple"
				}
			],
			"name": "getBurnDataId",
			"outputs": [
				{
					"internalType": "bytes32",
					"name": "result",
					"type": "bytes32"
				}
			],
			"stateMutability": "view",
			"type": "function"
		},
		{
			"inputs": [
				{
					"internalType": "bool",
					"name": "newBurnStatus",
					"type": "bool"
				},
				{
					"internalType": "int256",
					"name": "nonce",
					"type": "int256"
				}
			],
			"name": "getNewBurnStatusId",
			"outputs": [
				{
					"internalType": "bytes32",
					"name": "result",
					"type": "bytes32"
				}
			],
			"stateMutability": "view",
			"type": "function"
		},
		{
			"inputs": [
				{
					"internalType": "int256",
					"name": "oracleSetHash",
					"type": "int256"
				},
				{
					"internalType": "address[]",
					"name": "set",
					"type": "address[]"
				}
			],
			"name": "getNewSetId",
			"outputs": [
				{
					"internalType": "bytes32",
					"name": "result",
					"type": "bytes32"
				}
			],
			"stateMutability": "view",
			"type": "function"
		},
		{
			"inputs": [],
			"name": "getOracleSet",
			"outputs": [
				{
					"internalType": "address[]",
					"name": "",
					"type": "address[]"
				}
			],
			"stateMutability": "view",
			"type": "function"
		},
		{
			"inputs": [
				{
					"internalType": "address",
					"name": "token",
					"type": "address"
				},
				{
					"internalType": "uint256",
					"name": "amount",
					"type": "uint256"
				},
				{
					"components": [
						{
							"internalType": "int8",
							"name": "workchain",
							"type": "int8"
						},
						{
							"internalType": "bytes32",
							"name": "address_hash",
							"type": "bytes32"
						}
					],
					"internalType": "struct TonUtils.TonAddress",
					"name": "tonAddress",
					"type": "tuple"
				}
			],
			"name": "lock",
			"outputs": [],
			"stateMutability": "nonpayable",
			"type": "function"
		},
		{
			"inputs": [
				{
					"components": [
						{
							"internalType": "address",
							"name": "receiver",
							"type": "address"
						},
						{
							"internalType": "address",
							"name": "token",
							"type": "address"
						},
						{
							"internalType": "uint64",
							"name": "amount",
							"type": "uint64"
						},
						{
							"components": [
								{
									"components": [
										{
											"internalType": "int8",
											"name": "workchain",
											"type": "int8"
										},
										{
											"internalType": "bytes32",
											"name": "address_hash",
											"type": "bytes32"
										}
									],
									"internalType": "struct TonUtils.TonAddress",
									"name": "address_",
									"type": "tuple"
								},
								{
									"internalType": "bytes32",
									"name": "tx_hash",
									"type": "bytes32"
								},
								{
									"internalType": "uint64",
									"name": "lt",
									"type": "uint64"
								}
							],
							"internalType": "struct TonUtils.TonTxID",
							"name": "tx",
							"type": "tuple"
						}
					],
					"internalType": "struct TonUtils.SwapData",
					"name": "data",
					"type": "tuple"
				},
				{
					"components": [
						{
							"internalType": "address",
							"name": "signer",
							"type": "address"
						},
						{
							"internalType": "bytes",
							"name": "signature",
							"type": "bytes"
						}
					],
					"internalType": "struct TonUtils.Signature[]",
					"name": "signatures",
					"type": "tuple[]"
				}
			],
			"name": "unlock",
			"outputs": [],
			"stateMutability": "nonpayable",
			"type": "function"
		}
	],
	"bytecode": "0x60806040523480156200001157600080fd5b5060405162001af138038062001af183398101604081905262000034916200033d565b6200004160008262000048565b50620004a8565b6002815111620000ad5760405162461bcd60e51b815260206004820152602560248201527f7570646174654f7261636c655365743a206e65772073657420697320746f6f206044820152641cda1bdc9d60da1b60648201526084015b60405180910390fd5b60008054905b818110156200012057600060016000808481548110620000d757620000d76200040f565b6000918252602080832091909101546001600160a01b031683528201929092526040019020805460ff191691151591909117905580620001178162000425565b915050620000b3565b5081516200013690600090602085019062000289565b5060008054905b818110156200024757600160008583815181106200015f576200015f6200040f565b6020908102919091018101516001600160a01b031682528101919091526040016000205460ff1615620001e65760405162461bcd60e51b815260206004820152602860248201527f7570646174654f7261636c655365743a206475706c6963617465206f7261636c60448201526719481a5b8814d95d60c21b6064820152608401620000a4565b60018060008684815181106200020057620002006200040f565b6020908102919091018101516001600160a01b03168252810191909152604001600020805460ff1916911515919091179055806200023e8162000425565b9150506200013d565b507fbf8eff3db76b38ea899a5a32c8b2bede5ec5a339a2c5080495d1b154f2b5f21e84846040516200027b9291906200044f565b60405180910390a150505050565b828054828255906000526020600020908101928215620002e1579160200282015b82811115620002e157825182546001600160a01b0319166001600160a01b03909116178255602090920191600190910190620002aa565b50620002ef929150620002f3565b5090565b5b80821115620002ef5760008155600101620002f4565b634e487b7160e01b600052604160045260246000fd5b80516001600160a01b03811681146200033857600080fd5b919050565b600060208083850312156200035157600080fd5b82516001600160401b03808211156200036957600080fd5b818501915085601f8301126200037e57600080fd5b8151818111156200039357620003936200030a565b8060051b604051601f19603f83011681018181108582111715620003bb57620003bb6200030a565b604052918252848201925083810185019188831115620003da57600080fd5b938501935b828510156200040357620003f38562000320565b84529385019392850192620003df565b98975050505050505050565b634e487b7160e01b600052603260045260246000fd5b60006000198214156200044857634e487b7160e01b600052601160045260246000fd5b5060010190565b6000604082018483526020604081850152818551808452606086019150828701935060005b818110156200049b5784516001600160a01b03168352938301939183019160010162000474565b5090979650505050505050565b61163980620004b86000396000f3fe608060405234801561001057600080fd5b50600436106100885760003560e01c80637ddc10271161005b5780637ddc10271461019a578063a2d7cab8146101ad578063aefe7da4146101c0578063cf1a0ce1146101d357600080fd5b80632d85caa31461008d57806332c3cc33146100a257806346aa7ff0146100c057806376816a03146100d3575b600080fd5b6100a061009b366004610efb565b610206565b005b6100aa610579565b6040516100b79190610f89565b60405180910390f35b6100a06100ce366004611177565b6105e8565b61018c6100e136600461123e565b805160208083015160408085015160609586015180518051908601518287015192850151855161da7a818a0152308188015273ffffffffffffffffffffffffffffffffffffffff998a169a81019a909a5297909516608089015267ffffffffffffffff92831660a089015260000b60c088015260e087019390935261010086019290925292166101208085019190915282518085039091018152610140909301909152815191012090565b6040519081526020016100b7565b61018c6101a836600461126b565b610aa8565b6100a06101bb366004611297565b610af0565b61018c6101ce3660046112de565b610dca565b6101f66101e1366004611382565b60026020526000908152604090205460ff1681565b60405190151581526020016100b7565b73ffffffffffffffffffffffffffffffffffffffff831661026e5760405162461bcd60e51b815260206004820152601960248201527f6c6f636b3a2077726f6e6720746f6b656e20616464726573730000000000000060448201526064015b60405180910390fd5b6040517f23b872dd0000000000000000000000000000000000000000000000000000000081523360048201523060248201526044810183905273ffffffffffffffffffffffffffffffffffffffff8416906323b872dd90606401602060405180830381600087803b1580156102e257600080fd5b505af11580156102f6573d6000803e3d6000fd5b505050506040513d601f19601f8201168201806040525081019061031a919061139b565b5080602001518373ffffffffffffffffffffffffffffffffffffffff163373ffffffffffffffffffffffffffffffffffffffff167f20fb43cab89c0acbbf3074fa0f5462809f09b1aedf674d87e74c4de7e6ac1814858773ffffffffffffffffffffffffffffffffffffffff1663313ce5676040518163ffffffff1660e01b815260040160206040518083038186803b1580156103b657600080fd5b505afa1580156103ca573d6000803e3d6000fd5b505050506040513d601f19601f820116820180604052508101906103ee91906113b8565b8873ffffffffffffffffffffffffffffffffffffffff166306fdde036040518163ffffffff1660e01b815260040160006040518083038186803b15801561043457600080fd5b505afa158015610448573d6000803e3d6000fd5b505050506040513d6000823e601f3d908101601f19168201604052610470919081019061140b565b6040516020016104809190611482565b6040516020818303038152906040526104989061149e565b8973ffffffffffffffffffffffffffffffffffffffff166395d89b416040518163ffffffff1660e01b815260040160006040518083038186803b1580156104de57600080fd5b505afa1580156104f2573d6000803e3d6000fd5b505050506040513d6000823e601f3d908101601f1916820160405261051a919081019061140b565b60405160200161052a9190611482565b6040516020818303038152906040526105429061149e565b88516040805195865260ff909416602086015292840191909152606083015260000b608082015260a00160405180910390a4505050565b606060008054806020026020016040519081016040528092919081815260200182805480156105de57602002820191906000526020600020905b815473ffffffffffffffffffffffffffffffffffffffff1681526001909101906020018083116105b3575b5050505050905090565b815173ffffffffffffffffffffffffffffffffffffffff16331461064e5760405162461bcd60e51b815260206004820152601e60248201527f756e6c6f636b3a2077726f6e67207265636569766572206164647265737300006044820152606401610265565b60005460039061065f9060026114f4565b6106699190611513565b815110156106b95760405162461bcd60e51b815260206004820152601d60248201527f756e6c6f636b3a206e6f7420656e6f756768207369676e6174757265730000006044820152606401610265565b600061076a83805160208083015160408085015160609586015180518051908601518287015192850151855161da7a818a0152308188015273ffffffffffffffffffffffffffffffffffffffff998a169a81019a909a5297909516608089015267ffffffffffffffff92831660a089015260000b60c088015260e087019390935261010086019290925292166101208085019190915282518085039091018152610140909301909152815191012090565b60008181526002602052604090205490915060ff16156107cc5760405162461bcd60e51b815260206004820181905260248201527f756e6c6f636b3a20766f746520697320616c72656164792066696e69736865646044820152606401610265565b6000805b835181101561093a5760008482815181106107ed576107ed61154e565b6020908102919091018101515173ffffffffffffffffffffffffffffffffffffffff81166000908152600190925260409091205490915060ff166108735760405162461bcd60e51b815260206004820152601b60248201527f756e6c6f636b3a20756e617574686f72697a6564207369676e657200000000006044820152606401610265565b73ffffffffffffffffffffffffffffffffffffffff81168381116108ff5760405162461bcd60e51b815260206004820152602160248201527f756e6c6f636b3a207369676e61747572657320617265206e6f7420736f72746560448201527f64000000000000000000000000000000000000000000000000000000000000006064820152608401610265565b809350610925858785815181106109185761091861154e565b6020026020010151610af0565b505080806109329061157d565b9150506107d0565b506020840151845160408087015190517fa9059cbb00000000000000000000000000000000000000000000000000000000815273ffffffffffffffffffffffffffffffffffffffff928316600482015267ffffffffffffffff909116602482015291169063a9059cbb90604401602060405180830381600087803b1580156109c157600080fd5b505af11580156109d5573d6000803e3d6000fd5b505050506040513d601f19601f820116820180604052508101906109f9919061139b565b5060008281526002602090815260409182902080547fffffffffffffffffffffffffffffffffffffffffffffffffffffffffffffff00166001179055606086015181015186820151875188850151945167ffffffffffffffff9095168552919373ffffffffffffffffffffffffffffffffffffffff9182169391909216917f7a202d89e888e8db772dac1b6ef290eda62d04811c07f54401b458cefad19f8a910160405180910390a450505050565b6040805161b0126020820152309181019190915282151560608201526080810182905260009060a0015b60405160208183030381529060405280519060200120905092915050565b806020015151604114610b455760405162461bcd60e51b815260206004820152601f60248201527f45434453413a20696e76616c6964207369676e6174757265206c656e677468006044820152606401610265565b60208082015190810151604082015160608301519192909160001a907f7fffffffffffffffffffffffffffffff5d576e7357a4501ddfe92f46681b20a0831115610bf75760405162461bcd60e51b815260206004820152602260248201527f45434453413a20696e76616c6964207369676e6174757265202773272076616c60448201527f75650000000000000000000000000000000000000000000000000000000000006064820152608401610265565b8160ff16601b14158015610c0f57508160ff16601c14155b15610c825760405162461bcd60e51b815260206004820152602260248201527f45434453413a20696e76616c6964207369676e6174757265202776272076616c60448201527f75650000000000000000000000000000000000000000000000000000000000006064820152608401610265565b60006040518060400160405280601c81526020017f19457468657265756d205369676e6564204d6573736167653a0a333200000000815250905060008188604051602001610cd1929190611598565b60408051601f1981840301815282825280516020918201208a516000855291840180845281905260ff881692840192909252606083018990526080830188905290925073ffffffffffffffffffffffffffffffffffffffff169060019060a0016020604051602081039080840390855afa158015610d53573d6000803e3d6000fd5b5050506020604051035173ffffffffffffffffffffffffffffffffffffffff1614610dc05760405162461bcd60e51b815260206004820152600f60248201527f57726f6e67207369676e617475726500000000000000000000000000000000006044820152606401610265565b5050505050505050565b60006105e7308484604051602001610ad294939291906115ba565b803573ffffffffffffffffffffffffffffffffffffffff81168114610e0957600080fd5b919050565b7f4e487b7100000000000000000000000000000000000000000000000000000000600052604160045260246000fd5b6040805190810167ffffffffffffffff81118282101715610e6057610e60610e0e565b60405290565b6040516060810167ffffffffffffffff81118282101715610e6057610e60610e0e565b604051601f8201601f1916810167ffffffffffffffff81118282101715610eb257610eb2610e0e565b604052919050565b600060408284031215610ecc57600080fd5b610ed4610e3d565b905081358060000b8114610ee757600080fd5b808252506020820135602082015292915050565b600080600060808486031215610f1057600080fd5b610f1984610de5565b925060208401359150610f2f8560408601610eba565b90509250925092565b600081518084526020808501945080840160005b83811015610f7e57815173ffffffffffffffffffffffffffffffffffffffff1687529582019590820190600101610f4c565b509495945050505050565b602081526000610f9c6020830184610f38565b9392505050565b803567ffffffffffffffff81168114610e0957600080fd5b600081830360e0811215610fce57600080fd5b6040516080810181811067ffffffffffffffff82111715610ff157610ff1610e0e565b60405291508161100084610de5565b815261100e60208501610de5565b602082015261101f60408501610fa3565b604082015260807fffffffffffffffffffffffffffffffffffffffffffffffffffffffffffffffa08301121561105457600080fd5b61105c610e66565b915061106b8560608601610eba565b825260a0840135602083015261108360c08501610fa3565b60408301526060015292915050565b600067ffffffffffffffff8211156110ac576110ac610e0e565b5060051b60200190565b600067ffffffffffffffff8211156110d0576110d0610e0e565b50601f01601f191660200190565b6000604082840312156110f057600080fd5b6110f8610e3d565b905061110382610de5565b815260208083013567ffffffffffffffff81111561112057600080fd5b8301601f8101851361113157600080fd5b803561114461113f826110b6565b610e89565b818152868483850101111561115857600080fd5b8184840185830137600084838301015280848601525050505092915050565b600080610100838503121561118b57600080fd5b6111958484610fbb565b915060e083013567ffffffffffffffff808211156111b257600080fd5b818501915085601f8301126111c657600080fd5b813560206111d661113f83611092565b82815260059290921b840181019181810190898411156111f557600080fd5b8286015b8481101561122d578035868111156112115760008081fd5b61121f8c86838b01016110de565b8452509183019183016111f9565b508096505050505050509250929050565b600060e0828403121561125057600080fd5b610f9c8383610fbb565b801515811461126857600080fd5b50565b6000806040838503121561127e57600080fd5b82356112898161125a565b946020939093013593505050565b600080604083850312156112aa57600080fd5b82359150602083013567ffffffffffffffff8111156112c857600080fd5b6112d4858286016110de565b9150509250929050565b600080604083850312156112f157600080fd5b8235915060208084013567ffffffffffffffff81111561131057600080fd5b8401601f8101861361132157600080fd5b803561132f61113f82611092565b81815260059190911b8201830190838101908883111561134e57600080fd5b928401925b828410156113735761136484610de5565b82529284019290840190611353565b80955050505050509250929050565b60006020828403121561139457600080fd5b5035919050565b6000602082840312156113ad57600080fd5b8151610f9c8161125a565b6000602082840312156113ca57600080fd5b815160ff81168114610f9c57600080fd5b60005b838110156113f65781810151838201526020016113de565b83811115611405576000848401525b50505050565b60006020828403121561141d57600080fd5b815167ffffffffffffffff81111561143457600080fd5b8201601f8101841361144557600080fd5b805161145361113f826110b6565b81815285602083850101111561146857600080fd5b6114798260208301602086016113db565b95945050505050565b600082516114948184602087016113db565b9190910192915050565b805160208083015191908110156114bf576000198160200360031b1b821691505b50919050565b7f4e487b7100000000000000000000000000000000000000000000000000000000600052601160045260246000fd5b600081600019048311821515161561150e5761150e6114c5565b500290565b600082611549577f4e487b7100000000000000000000000000000000000000000000000000000000600052601260045260246000fd5b500490565b7f4e487b7100000000000000000000000000000000000000000000000000000000600052603260045260246000fd5b6000600019821415611591576115916114c5565b5060010190565b600083516115aa8184602088016113db565b9190910191825250602001919050565b61ffff8516815273ffffffffffffffffffffffffffffffffffffffff841660208201528260408201526080606082015260006115f96080830184610f38565b969550505050505056fea264697066735822122027eb1f14cfa0d534c3af9c923f1998fde342d4f04825113232ee4e004eff634f64736f6c63430008090033",
	"linkReferences": {},
	"deployedLinkReferences": {}
}