{
  "_format": "hh-sol-artifact-1",
  "contractName": "Bridge",
  "sourceName": "contracts/Bridge.sol",
  "abi": [
    {
      "inputs": [
        {
          "internalType": "address[]",
          "name": "initialSet",
          "type": "address[]"
        }
      ],
      "stateMutability": "nonpayable",
      "type": "constructor"
    },
    {
      "anonymous": false,
      "inputs": [
        {
          "indexed": true,
          "internalType": "address",
          "name": "from",
          "type": "address"
        },
        {
          "indexed": true,
          "internalType": "address",
          "name": "token",
          "type": "address"
        },
        {
          "indexed": true,
          "internalType": "bytes32",
          "name": "to_addr_hash",
          "type": "bytes32"
        },
        {
          "indexed": false,
          "internalType": "uint256",
          "name": "value",
          "type": "uint256"
        },
        {
          "indexed": false,
          "internalType": "uint8",
          "name": "decimals",
          "type": "uint8"
        }
      ],
      "name": "Lock",
      "type": "event"
    },
    {
      "anonymous": false,
      "inputs": [
        {
          "indexed": false,
          "internalType": "uint256",
          "name": "oracleSetHash",
          "type": "uint256"
        },
        {
          "indexed": false,
          "internalType": "address[]",
          "name": "newOracles",
          "type": "address[]"
        }
      ],
      "name": "NewOracleSet",
      "type": "event"
    },
    {
      "anonymous": false,
      "inputs": [
        {
          "indexed": true,
          "internalType": "address",
          "name": "token",
          "type": "address"
        },
        {
          "indexed": false,
          "internalType": "bytes32",
          "name": "ton_address_hash",
          "type": "bytes32"
        },
        {
          "indexed": true,
          "internalType": "bytes32",
          "name": "ton_tx_hash",
          "type": "bytes32"
        },
        {
          "indexed": false,
          "internalType": "uint64",
          "name": "lt",
          "type": "uint64"
        },
        {
          "indexed": true,
          "internalType": "address",
          "name": "to",
          "type": "address"
        },
        {
          "indexed": false,
          "internalType": "uint256",
          "name": "value",
          "type": "uint256"
        }
      ],
      "name": "Unlock",
      "type": "event"
    },
    {
      "inputs": [],
      "name": "allowLock",
      "outputs": [
        {
          "internalType": "bool",
          "name": "",
          "type": "bool"
        }
      ],
      "stateMutability": "view",
      "type": "function"
    },
    {
      "inputs": [
        {
          "internalType": "bytes32",
          "name": "digest",
          "type": "bytes32"
        },
        {
          "components": [
            {
              "internalType": "address",
              "name": "signer",
              "type": "address"
            },
            {
              "internalType": "bytes",
              "name": "signature",
              "type": "bytes"
            }
          ],
          "internalType": "struct TonUtils.Signature",
          "name": "sig",
          "type": "tuple"
        }
      ],
      "name": "checkSignature",
      "outputs": [],
      "stateMutability": "pure",
      "type": "function"
    },
    {
      "inputs": [
        {
          "internalType": "bytes32",
          "name": "",
          "type": "bytes32"
        }
      ],
      "name": "finishedVotings",
      "outputs": [
        {
          "internalType": "bool",
          "name": "",
          "type": "bool"
        }
      ],
      "stateMutability": "view",
      "type": "function"
    },
    {
      "inputs": [],
      "name": "getFullOracleSet",
      "outputs": [
        {
          "internalType": "address[]",
          "name": "",
          "type": "address[]"
        }
      ],
      "stateMutability": "view",
      "type": "function"
    },
    {
      "inputs": [
        {
          "internalType": "bool",
          "name": "newLockStatus",
          "type": "bool"
        },
        {
          "internalType": "uint256",
          "name": "nonce",
          "type": "uint256"
        }
      ],
      "name": "getNewLockStatusId",
      "outputs": [
        {
          "internalType": "bytes32",
          "name": "result",
          "type": "bytes32"
        }
      ],
      "stateMutability": "view",
      "type": "function"
    },
    {
      "inputs": [
        {
          "internalType": "uint256",
          "name": "oracleSetHash",
          "type": "uint256"
        },
        {
          "internalType": "address[]",
          "name": "set",
          "type": "address[]"
        }
      ],
      "name": "getNewSetId",
      "outputs": [
        {
          "internalType": "bytes32",
          "name": "result",
          "type": "bytes32"
        }
      ],
      "stateMutability": "view",
      "type": "function"
    },
    {
      "inputs": [
        {
          "components": [
            {
              "internalType": "address",
              "name": "receiver",
              "type": "address"
            },
            {
              "internalType": "address",
              "name": "token",
              "type": "address"
            },
            {
              "internalType": "uint64",
              "name": "amount",
              "type": "uint64"
            },
            {
              "components": [
                {
                  "internalType": "bytes32",
                  "name": "address_hash",
                  "type": "bytes32"
                },
                {
                  "internalType": "bytes32",
                  "name": "tx_hash",
                  "type": "bytes32"
                },
                {
                  "internalType": "uint64",
                  "name": "lt",
                  "type": "uint64"
                }
              ],
              "internalType": "struct TonUtils.TonTxID",
              "name": "tx",
              "type": "tuple"
            }
          ],
          "internalType": "struct TonUtils.SwapData",
          "name": "data",
          "type": "tuple"
        }
      ],
      "name": "getSwapDataId",
      "outputs": [
        {
          "internalType": "bytes32",
          "name": "result",
          "type": "bytes32"
        }
      ],
      "stateMutability": "view",
      "type": "function"
    },
    {
      "inputs": [
        {
          "internalType": "address",
          "name": "",
          "type": "address"
        }
      ],
      "name": "isOracle",
      "outputs": [
        {
          "internalType": "bool",
          "name": "",
          "type": "bool"
        }
      ],
      "stateMutability": "view",
      "type": "function"
    },
    {
      "inputs": [
        {
          "internalType": "address",
          "name": "token",
          "type": "address"
        },
        {
          "internalType": "uint256",
          "name": "amount",
          "type": "uint256"
        },
        {
          "internalType": "bytes32",
          "name": "to_address_hash",
          "type": "bytes32"
        }
      ],
      "name": "lock",
      "outputs": [],
      "stateMutability": "nonpayable",
      "type": "function"
    },
    {
      "inputs": [
        {
          "components": [
            {
              "internalType": "address",
              "name": "receiver",
              "type": "address"
            },
            {
              "internalType": "address",
              "name": "token",
              "type": "address"
            },
            {
              "internalType": "uint64",
              "name": "amount",
              "type": "uint64"
            },
            {
              "components": [
                {
                  "internalType": "bytes32",
                  "name": "address_hash",
                  "type": "bytes32"
                },
                {
                  "internalType": "bytes32",
                  "name": "tx_hash",
                  "type": "bytes32"
                },
                {
                  "internalType": "uint64",
                  "name": "lt",
                  "type": "uint64"
                }
              ],
              "internalType": "struct TonUtils.TonTxID",
              "name": "tx",
              "type": "tuple"
            }
          ],
          "internalType": "struct TonUtils.SwapData",
          "name": "data",
          "type": "tuple"
        },
        {
          "components": [
            {
              "internalType": "address",
              "name": "signer",
              "type": "address"
            },
            {
              "internalType": "bytes",
              "name": "signature",
              "type": "bytes"
            }
          ],
          "internalType": "struct TonUtils.Signature[]",
          "name": "signatures",
          "type": "tuple[]"
        }
      ],
      "name": "unlock",
      "outputs": [],
      "stateMutability": "nonpayable",
      "type": "function"
    },
    {
      "inputs": [
        {
          "internalType": "uint256",
          "name": "oracleSetHash",
          "type": "uint256"
        },
        {
          "internalType": "address[]",
          "name": "newOracles",
          "type": "address[]"
        },
        {
          "components": [
            {
              "internalType": "address",
              "name": "signer",
              "type": "address"
            },
            {
              "internalType": "bytes",
              "name": "signature",
              "type": "bytes"
            }
          ],
          "internalType": "struct TonUtils.Signature[]",
          "name": "signatures",
          "type": "tuple[]"
        }
      ],
      "name": "voteForNewOracleSet",
      "outputs": [],
      "stateMutability": "nonpayable",
      "type": "function"
    },
    {
      "inputs": [
        {
          "internalType": "bool",
          "name": "newLockStatus",
          "type": "bool"
        },
        {
          "internalType": "uint256",
          "name": "nonce",
          "type": "uint256"
        },
        {
          "components": [
            {
              "internalType": "address",
              "name": "signer",
              "type": "address"
            },
            {
              "internalType": "bytes",
              "name": "signature",
              "type": "bytes"
            }
          ],
          "internalType": "struct TonUtils.Signature[]",
          "name": "signatures",
          "type": "tuple[]"
        }
      ],
      "name": "voteForSwitchLock",
      "outputs": [],
      "stateMutability": "nonpayable",
      "type": "function"
    }
  ],
  "bytecode": "0x60806040523480156200001157600080fd5b5060405162001e8338038062001e8383398101604081905262000034916200031e565b6200004160008262000048565b5062000489565b60028151116200009f5760405162461bcd60e51b815260206004820152601460248201527f4e65772073657420697320746f6f2073686f727400000000000000000000000060448201526064015b60405180910390fd5b60008054905b818110156200011257600060016000808481548110620000c957620000c9620003f0565b6000918252602080832091909101546001600160a01b031683528201929092526040019020805460ff191691151591909117905580620001098162000406565b915050620000a5565b508151620001289060009060208501906200026a565b5060008054905b81811015620002285760016000858381518110620001515762000151620003f0565b6020908102919091018101516001600160a01b031682528101919091526040016000205460ff1615620001c75760405162461bcd60e51b815260206004820152601760248201527f4475706c6963617465206f7261636c6520696e20536574000000000000000000604482015260640162000096565b6001806000868481518110620001e157620001e1620003f0565b6020908102919091018101516001600160a01b03168252810191909152604001600020805460ff1916911515919091179055806200021f8162000406565b9150506200012f565b507f9486a6c41bd991eda1bcabe983ebe4fe4a19b8109acdea68feebd49c8cc1d25a84846040516200025c92919062000430565b60405180910390a150505050565b828054828255906000526020600020908101928215620002c2579160200282015b82811115620002c257825182546001600160a01b0319166001600160a01b039091161782556020909201916001909101906200028b565b50620002d0929150620002d4565b5090565b5b80821115620002d05760008155600101620002d5565b634e487b7160e01b600052604160045260246000fd5b80516001600160a01b03811681146200031957600080fd5b919050565b600060208083850312156200033257600080fd5b82516001600160401b03808211156200034a57600080fd5b818501915085601f8301126200035f57600080fd5b815181811115620003745762000374620002eb565b8060051b604051601f19603f830116810181811085821117156200039c576200039c620002eb565b604052918252848201925083810185019188831115620003bb57600080fd5b938501935b82851015620003e457620003d48562000301565b84529385019392850192620003c0565b98975050505050505050565b634e487b7160e01b600052603260045260246000fd5b60006000198214156200042957634e487b7160e01b600052601160045260246000fd5b5060010190565b6000604082018483526020604081850152818551808452606086019150828701935060005b818110156200047c5784516001600160a01b03168352938301939183019160010162000455565b5090979650505050505050565b6119ea80620004996000396000f3fe608060405234801561001057600080fd5b50600436106100d45760003560e01c8063a2d7cab811610081578063c2c5e1291161005b578063c2c5e1291461024c578063ca3369c61461025f578063cf1a0ce11461027257600080fd5b8063a2d7cab814610203578063a97e5c9314610216578063b2235e4b1461023957600080fd5b806375f2d82b116100b257806375f2d82b146101c65780637ecd81a5146101db5780639f208c0e146101f057600080fd5b8063181cdc42146100d9578063653f1130146100ff57806369d38e1c146101a9575b600080fd5b6100ec6100e7366004611181565b610295565b6040519081526020015b60405180910390f35b6100ec61010d366004611369565b805160208083015160408085015160609586015180518186015191840151845161da7a81890152308187015273ffffffffffffffffffffffffffffffffffffffff9889169981019990995296909416608088015267ffffffffffffffff91821660a088015260c087019390935260e086019290925292166101008085019190915282518085039091018152610120909301909152815191012090565b6003546101b69060ff1681565b60405190151581526020016100f6565b6101ce6102dd565b6040516100f691906113dd565b6101ee6101e93660046115b5565b61034c565b005b6101ee6101fe366004611622565b61038d565b6101ee610211366004611671565b6103d6565b6101b66102243660046116b8565b60016020526000908152604090205460ff1681565b6101ee6102473660046116d3565b6106b5565b6100ec61025a366004611718565b6108e8565b6101ee61026d366004611755565b610903565b6101b6610280366004611788565b60026020526000908152604090205460ff1681565b6040805161b0126020820152309181019190915282151560608201526080810182905260009060a0015b60405160208183030381529060405280519060200120905092915050565b6060600080548060200260200160405190810160405280929190818152602001828054801561034257602002820191906000526020600020905b815473ffffffffffffffffffffffffffffffffffffffff168152600190910190602001808311610317575b5050505050905090565b600061035884846108e8565b90506103648183610c8b565b6000818152600260205260409020805460ff191660011790556103878484610ea5565b50505050565b60006103998484610295565b90506103a58183610c8b565b60009081526002602052604090208054600160ff199182161790915560038054909116931515939093179092555050565b8060200151516041146104305760405162461bcd60e51b815260206004820152601f60248201527f45434453413a20696e76616c6964207369676e6174757265206c656e6774680060448201526064015b60405180910390fd5b60208082015190810151604082015160608301519192909160001a907f7fffffffffffffffffffffffffffffff5d576e7357a4501ddfe92f46681b20a08311156104e25760405162461bcd60e51b815260206004820152602260248201527f45434453413a20696e76616c6964207369676e6174757265202773272076616c60448201527f75650000000000000000000000000000000000000000000000000000000000006064820152608401610427565b8160ff16601b141580156104fa57508160ff16601c14155b1561056d5760405162461bcd60e51b815260206004820152602260248201527f45434453413a20696e76616c6964207369676e6174757265202776272076616c60448201527f75650000000000000000000000000000000000000000000000000000000000006064820152608401610427565b60006040518060400160405280601c81526020017f19457468657265756d205369676e6564204d6573736167653a0a3332000000008152509050600081886040516020016105bc9291906117a1565b60408051601f1981840301815282825280516020918201208a516000855291840180845281905260ff881692840192909252606083018990526080830188905290925073ffffffffffffffffffffffffffffffffffffffff169060019060a0016020604051602081039080840390855afa15801561063e573d6000803e3d6000fd5b5050506020604051035173ffffffffffffffffffffffffffffffffffffffff16146106ab5760405162461bcd60e51b815260206004820152600f60248201527f57726f6e67207369676e617475726500000000000000000000000000000000006044820152606401610427565b5050505050505050565b600061075783805160208083015160408085015160609586015180518186015191840151845161da7a81890152308187015273ffffffffffffffffffffffffffffffffffffffff9889169981019990995296909416608088015267ffffffffffffffff91821660a088015260c087019390935260e086019290925292166101008085019190915282518085039091018152610120909301909152815191012090565b90506107638183610c8b565b600081815260026020908152604091829020805460ff1916600117905584015184518583015192517fa9059cbb00000000000000000000000000000000000000000000000000000000815273ffffffffffffffffffffffffffffffffffffffff918216600482015267ffffffffffffffff9093166024840152169063a9059cbb90604401602060405180830381600087803b15801561080157600080fd5b505af1158015610815573d6000803e3d6000fd5b505050506040513d601f19601f8201168201806040525081019061083991906117e2565b50826000015173ffffffffffffffffffffffffffffffffffffffff16836060015160200151846020015173ffffffffffffffffffffffffffffffffffffffff167f059d6c7bd52b4f354001dcc692982bd0c534d182028391f4daf456b9f41296ba86606001516000015187606001516040015188604001516040516108db9392919092835267ffffffffffffffff918216602084015216604082015260600190565b60405180910390a4505050565b60006105e73084846040516020016102bf94939291906117ff565b60035460ff166109555760405162461bcd60e51b815260206004820152601a60248201527f4c6f636b2069732063757272656e746c792064697361626c65640000000000006044820152606401610427565b73ffffffffffffffffffffffffffffffffffffffff83166109b85760405162461bcd60e51b815260206004820152601960248201527f6c6f636b3a2077726f6e6720746f6b656e2061646472657373000000000000006044820152606401610427565b60006effffffffffffffffffffffffffffff905060008473ffffffffffffffffffffffffffffffffffffffff166318160ddd6040518163ffffffff1660e01b815260040160206040518083038186803b158015610a1457600080fd5b505afa158015610a28573d6000803e3d6000fd5b505050506040513d601f19601f82011682018060405250810190610a4c9190611848565b905081811115610a9e5760405162461bcd60e51b815260206004820152601c60248201527f4d617820746f74616c537570706c792032202a2a20313230202d2031000000006044820152606401610427565b81841115610aee5760405162461bcd60e51b815260206004820152601c60248201527f4d617820746f74616c537570706c792032202a2a20313230202d2031000000006044820152606401610427565b6040517f23b872dd0000000000000000000000000000000000000000000000000000000081523360048201523060248201526044810185905273ffffffffffffffffffffffffffffffffffffffff8616906323b872dd90606401602060405180830381600087803b158015610b6257600080fd5b505af1158015610b76573d6000803e3d6000fd5b505050506040513d601f19601f82011682018060405250810190610b9a91906117e2565b50828573ffffffffffffffffffffffffffffffffffffffff163373ffffffffffffffffffffffffffffffffffffffff167f09f473b3798b7da9b4b21c5394da2d17389ded2d05d710d3c36f352f9471e895878973ffffffffffffffffffffffffffffffffffffffff1663313ce5676040518163ffffffff1660e01b815260040160206040518083038186803b158015610c3257600080fd5b505afa158015610c46573d6000803e3d6000fd5b505050506040513d601f19601f82011682018060405250810190610c6a9190611861565b6040805192835260ff90911660208301520160405180910390a45050505050565b600054600390610c9c9060026118b3565b610ca691906118f0565b81511015610cf65760405162461bcd60e51b815260206004820152601560248201527f4e6f7420656e6f756768207369676e61747572657300000000000000000000006044820152606401610427565b60008281526002602052604090205460ff1615610d555760405162461bcd60e51b815260206004820152601860248201527f566f746520697320616c72656164792066696e697368656400000000000000006044820152606401610427565b80516000805b82811015610e9e576000848281518110610d7757610d7761192b565b6020908102919091018101515173ffffffffffffffffffffffffffffffffffffffff81166000908152600190925260409091205490915060ff16610dfd5760405162461bcd60e51b815260206004820152601360248201527f556e617574686f72697a6564207369676e6572000000000000000000000000006044820152606401610427565b73ffffffffffffffffffffffffffffffffffffffff8116838111610e635760405162461bcd60e51b815260206004820152601960248201527f5369676e61747572657320617265206e6f7420736f72746564000000000000006044820152606401610427565b809350610e8987878581518110610e7c57610e7c61192b565b60200260200101516103d6565b50508080610e969061195a565b915050610d5b565b5050505050565b6002815111610ef65760405162461bcd60e51b815260206004820152601460248201527f4e65772073657420697320746f6f2073686f72740000000000000000000000006044820152606401610427565b60008054905b81811015610f6f57600060016000808481548110610f1c57610f1c61192b565b60009182526020808320919091015473ffffffffffffffffffffffffffffffffffffffff1683528201929092526040019020805460ff191691151591909117905580610f678161195a565b915050610efc565b508151610f839060009060208501906110d1565b5060008054905b818110156110915760016000858381518110610fa857610fa861192b565b60209081029190910181015173ffffffffffffffffffffffffffffffffffffffff1682528101919091526040016000205460ff16156110295760405162461bcd60e51b815260206004820152601760248201527f4475706c6963617465206f7261636c6520696e205365740000000000000000006044820152606401610427565b60018060008684815181106110405761104061192b565b60209081029190910181015173ffffffffffffffffffffffffffffffffffffffff168252810191909152604001600020805460ff1916911515919091179055806110898161195a565b915050610f8a565b507f9486a6c41bd991eda1bcabe983ebe4fe4a19b8109acdea68feebd49c8cc1d25a84846040516110c3929190611993565b60405180910390a150505050565b82805482825590600052602060002090810192821561114b579160200282015b8281111561114b57825182547fffffffffffffffffffffffff00000000000000000000000000000000000000001673ffffffffffffffffffffffffffffffffffffffff9091161782556020909201916001909101906110f1565b5061115792915061115b565b5090565b5b80821115611157576000815560010161115c565b801515811461117e57600080fd5b50565b6000806040838503121561119457600080fd5b823561119f81611170565b946020939093013593505050565b7f4e487b7100000000000000000000000000000000000000000000000000000000600052604160045260246000fd5b6040516060810167ffffffffffffffff811182821017156111ff576111ff6111ad565b60405290565b6040805190810167ffffffffffffffff811182821017156111ff576111ff6111ad565b604051601f8201601f1916810167ffffffffffffffff81118282101715611251576112516111ad565b604052919050565b803573ffffffffffffffffffffffffffffffffffffffff8116811461127d57600080fd5b919050565b803567ffffffffffffffff8116811461127d57600080fd5b600081830360c08112156112ad57600080fd5b6040516080810181811067ffffffffffffffff821117156112d0576112d06111ad565b6040529150816112df84611259565b81526112ed60208501611259565b60208201526112fe60408501611282565b604082015260607fffffffffffffffffffffffffffffffffffffffffffffffffffffffffffffffa08301121561133357600080fd5b61133b6111dc565b9150606084013582526080840135602083015261135a60a08501611282565b60408301526060015292915050565b600060c0828403121561137b57600080fd5b611385838361129a565b9392505050565b600081518084526020808501945080840160005b838110156113d257815173ffffffffffffffffffffffffffffffffffffffff16875295820195908201906001016113a0565b509495945050505050565b602081526000611385602083018461138c565b600067ffffffffffffffff82111561140a5761140a6111ad565b5060051b60200190565b600082601f83011261142557600080fd5b8135602061143a611435836113f0565b611228565b82815260059290921b8401810191818101908684111561145957600080fd5b8286015b8481101561147b5761146e81611259565b835291830191830161145d565b509695505050505050565b60006040828403121561149857600080fd5b6114a0611205565b90506114ab82611259565b815260208083013567ffffffffffffffff808211156114c957600080fd5b818501915085601f8301126114dd57600080fd5b8135818111156114ef576114ef6111ad565b61150184601f19601f84011601611228565b9150808252868482850101111561151757600080fd5b80848401858401376000908201840152918301919091525092915050565b600082601f83011261154657600080fd5b81356020611556611435836113f0565b82815260059290921b8401810191818101908684111561157557600080fd5b8286015b8481101561147b57803567ffffffffffffffff8111156115995760008081fd5b6115a78986838b0101611486565b845250918301918301611579565b6000806000606084860312156115ca57600080fd5b83359250602084013567ffffffffffffffff808211156115e957600080fd5b6115f587838801611414565b9350604086013591508082111561160b57600080fd5b5061161886828701611535565b9150509250925092565b60008060006060848603121561163757600080fd5b833561164281611170565b925060208401359150604084013567ffffffffffffffff81111561166557600080fd5b61161886828701611535565b6000806040838503121561168457600080fd5b82359150602083013567ffffffffffffffff8111156116a257600080fd5b6116ae85828601611486565b9150509250929050565b6000602082840312156116ca57600080fd5b61138582611259565b60008060e083850312156116e657600080fd5b6116f0848461129a565b915060c083013567ffffffffffffffff81111561170c57600080fd5b6116ae85828601611535565b6000806040838503121561172b57600080fd5b82359150602083013567ffffffffffffffff81111561174957600080fd5b6116ae85828601611414565b60008060006060848603121561176a57600080fd5b61177384611259565b95602085013595506040909401359392505050565b60006020828403121561179a57600080fd5b5035919050565b6000835160005b818110156117c257602081870181015185830152016117a8565b818111156117d1576000828501525b509190910191825250602001919050565b6000602082840312156117f457600080fd5b815161138581611170565b61ffff8516815273ffffffffffffffffffffffffffffffffffffffff8416602082015282604082015260806060820152600061183e608083018461138c565b9695505050505050565b60006020828403121561185a57600080fd5b5051919050565b60006020828403121561187357600080fd5b815160ff8116811461138557600080fd5b7f4e487b7100000000000000000000000000000000000000000000000000000000600052601160045260246000fd5b6000817fffffffffffffffffffffffffffffffffffffffffffffffffffffffffffffffff04831182151516156118eb576118eb611884565b500290565b600082611926577f4e487b7100000000000000000000000000000000000000000000000000000000600052601260045260246000fd5b500490565b7f4e487b7100000000000000000000000000000000000000000000000000000000600052603260045260246000fd5b60007fffffffffffffffffffffffffffffffffffffffffffffffffffffffffffffffff82141561198c5761198c611884565b5060010190565b8281526040602082015260006119ac604083018461138c565b94935050505056fea2646970667358221220a8ba51999f3e7babec196457ffa64ff9da73890fe9e4b0543d17d2f8ee39b30a64736f6c63430008090033",
  "linkReferences": {},
  "deployedLinkReferences": {}
}