{
  "_format": "hh-sol-artifact-1",
  "contractName": "Bridge",
  "sourceName": "contracts/Bridge.sol",
  "abi": [
    {
      "inputs": [
        {
          "internalType": "address[]",
          "name": "initialSet",
          "type": "address[]"
        }
      ],
      "stateMutability": "nonpayable",
      "type": "constructor"
    },
    {
      "anonymous": false,
      "inputs": [
        {
          "indexed": true,
          "internalType": "address",
          "name": "from",
          "type": "address"
        },
        {
          "indexed": true,
          "internalType": "address",
          "name": "token",
          "type": "address"
        },
        {
          "indexed": true,
          "internalType": "bytes32",
          "name": "to_addr_hash",
          "type": "bytes32"
        },
        {
          "indexed": false,
          "internalType": "uint256",
          "name": "value",
          "type": "uint256"
        },
        {
          "indexed": false,
          "internalType": "uint8",
          "name": "decimals",
          "type": "uint8"
        }
      ],
      "name": "Lock",
      "type": "event"
    },
    {
      "anonymous": false,
      "inputs": [
        {
          "indexed": false,
          "internalType": "uint256",
          "name": "oracleSetHash",
          "type": "uint256"
        },
        {
          "indexed": false,
          "internalType": "address[]",
          "name": "newOracles",
          "type": "address[]"
        }
      ],
      "name": "NewOracleSet",
      "type": "event"
    },
    {
      "anonymous": false,
      "inputs": [
        {
          "indexed": true,
          "internalType": "address",
          "name": "token",
          "type": "address"
        },
        {
          "indexed": false,
          "internalType": "bytes32",
          "name": "ton_address_hash",
          "type": "bytes32"
        },
        {
          "indexed": true,
          "internalType": "bytes32",
          "name": "ton_tx_hash",
          "type": "bytes32"
        },
        {
          "indexed": false,
          "internalType": "uint64",
          "name": "lt",
          "type": "uint64"
        },
        {
          "indexed": true,
          "internalType": "address",
          "name": "to",
          "type": "address"
        },
        {
          "indexed": false,
          "internalType": "uint256",
          "name": "value",
          "type": "uint256"
        }
      ],
      "name": "Unlock",
      "type": "event"
    },
    {
      "inputs": [],
      "name": "allowLock",
      "outputs": [
        {
          "internalType": "bool",
          "name": "",
          "type": "bool"
        }
      ],
      "stateMutability": "view",
      "type": "function"
    },
    {
      "inputs": [
        {
          "internalType": "bytes32",
          "name": "digest",
          "type": "bytes32"
        },
        {
          "components": [
            {
              "internalType": "address",
              "name": "signer",
              "type": "address"
            },
            {
              "internalType": "bytes",
              "name": "signature",
              "type": "bytes"
            }
          ],
          "internalType": "struct TonUtils.Signature",
          "name": "sig",
          "type": "tuple"
        }
      ],
      "name": "checkSignature",
      "outputs": [],
      "stateMutability": "pure",
      "type": "function"
    },
    {
      "inputs": [
        {
          "internalType": "address",
          "name": "token",
          "type": "address"
        }
      ],
      "name": "checkTokenIsWrappedJetton",
      "outputs": [
        {
          "internalType": "bool",
          "name": "",
          "type": "bool"
        }
      ],
      "stateMutability": "view",
      "type": "function"
    },
    {
      "inputs": [
        {
          "internalType": "bytes32",
          "name": "",
          "type": "bytes32"
        }
      ],
      "name": "finishedVotings",
      "outputs": [
        {
          "internalType": "bool",
          "name": "",
          "type": "bool"
        }
      ],
      "stateMutability": "view",
      "type": "function"
    },
    {
      "inputs": [],
      "name": "getFullOracleSet",
      "outputs": [
        {
          "internalType": "address[]",
          "name": "",
          "type": "address[]"
        }
      ],
      "stateMutability": "view",
      "type": "function"
    },
    {
      "inputs": [
        {
          "internalType": "bool",
          "name": "newLockStatus",
          "type": "bool"
        },
        {
          "internalType": "uint256",
          "name": "nonce",
          "type": "uint256"
        }
      ],
      "name": "getNewLockStatusId",
      "outputs": [
        {
          "internalType": "bytes32",
          "name": "result",
          "type": "bytes32"
        }
      ],
      "stateMutability": "view",
      "type": "function"
    },
    {
      "inputs": [
        {
          "internalType": "uint256",
          "name": "oracleSetHash",
          "type": "uint256"
        },
        {
          "internalType": "address[]",
          "name": "set",
          "type": "address[]"
        }
      ],
      "name": "getNewSetId",
      "outputs": [
        {
          "internalType": "bytes32",
          "name": "result",
          "type": "bytes32"
        }
      ],
      "stateMutability": "view",
      "type": "function"
    },
    {
      "inputs": [
        {
          "components": [
            {
              "internalType": "address",
              "name": "receiver",
              "type": "address"
            },
            {
              "internalType": "address",
              "name": "token",
              "type": "address"
            },
            {
              "internalType": "uint256",
              "name": "amount",
              "type": "uint256"
            },
            {
              "components": [
                {
                  "internalType": "bytes32",
                  "name": "address_hash",
                  "type": "bytes32"
                },
                {
                  "internalType": "bytes32",
                  "name": "tx_hash",
                  "type": "bytes32"
                },
                {
                  "internalType": "uint64",
                  "name": "lt",
                  "type": "uint64"
                }
              ],
              "internalType": "struct TonUtils.TonTxID",
              "name": "tx",
              "type": "tuple"
            }
          ],
          "internalType": "struct TonUtils.SwapData",
          "name": "data",
          "type": "tuple"
        }
      ],
      "name": "getSwapDataId",
      "outputs": [
        {
          "internalType": "bytes32",
          "name": "result",
          "type": "bytes32"
        }
      ],
      "stateMutability": "view",
      "type": "function"
    },
    {
      "inputs": [
        {
          "internalType": "address",
          "name": "",
          "type": "address"
        }
      ],
      "name": "isOracle",
      "outputs": [
        {
          "internalType": "bool",
          "name": "",
          "type": "bool"
        }
      ],
      "stateMutability": "view",
      "type": "function"
    },
    {
      "inputs": [
        {
          "internalType": "address",
          "name": "token",
          "type": "address"
        },
        {
          "internalType": "uint256",
          "name": "amount",
          "type": "uint256"
        },
        {
          "internalType": "bytes32",
          "name": "to_address_hash",
          "type": "bytes32"
        }
      ],
      "name": "lock",
      "outputs": [],
      "stateMutability": "nonpayable",
      "type": "function"
    },
    {
      "inputs": [
        {
          "components": [
            {
              "internalType": "address",
              "name": "receiver",
              "type": "address"
            },
            {
              "internalType": "address",
              "name": "token",
              "type": "address"
            },
            {
              "internalType": "uint256",
              "name": "amount",
              "type": "uint256"
            },
            {
              "components": [
                {
                  "internalType": "bytes32",
                  "name": "address_hash",
                  "type": "bytes32"
                },
                {
                  "internalType": "bytes32",
                  "name": "tx_hash",
                  "type": "bytes32"
                },
                {
                  "internalType": "uint64",
                  "name": "lt",
                  "type": "uint64"
                }
              ],
              "internalType": "struct TonUtils.TonTxID",
              "name": "tx",
              "type": "tuple"
            }
          ],
          "internalType": "struct TonUtils.SwapData",
          "name": "data",
          "type": "tuple"
        },
        {
          "components": [
            {
              "internalType": "address",
              "name": "signer",
              "type": "address"
            },
            {
              "internalType": "bytes",
              "name": "signature",
              "type": "bytes"
            }
          ],
          "internalType": "struct TonUtils.Signature[]",
          "name": "signatures",
          "type": "tuple[]"
        }
      ],
      "name": "unlock",
      "outputs": [],
      "stateMutability": "nonpayable",
      "type": "function"
    },
    {
      "inputs": [
        {
          "internalType": "uint256",
          "name": "oracleSetHash",
          "type": "uint256"
        },
        {
          "internalType": "address[]",
          "name": "newOracles",
          "type": "address[]"
        },
        {
          "components": [
            {
              "internalType": "address",
              "name": "signer",
              "type": "address"
            },
            {
              "internalType": "bytes",
              "name": "signature",
              "type": "bytes"
            }
          ],
          "internalType": "struct TonUtils.Signature[]",
          "name": "signatures",
          "type": "tuple[]"
        }
      ],
      "name": "voteForNewOracleSet",
      "outputs": [],
      "stateMutability": "nonpayable",
      "type": "function"
    },
    {
      "inputs": [
        {
          "internalType": "bool",
          "name": "newLockStatus",
          "type": "bool"
        },
        {
          "internalType": "uint256",
          "name": "nonce",
          "type": "uint256"
        },
        {
          "components": [
            {
              "internalType": "address",
              "name": "signer",
              "type": "address"
            },
            {
              "internalType": "bytes",
              "name": "signature",
              "type": "bytes"
            }
          ],
          "internalType": "struct TonUtils.Signature[]",
          "name": "signatures",
          "type": "tuple[]"
        }
      ],
      "name": "voteForSwitchLock",
      "outputs": [],
      "stateMutability": "nonpayable",
      "type": "function"
    }
  ],
  "bytecode": "0x60806040523480156200001157600080fd5b50604051620024493803806200244983398101604081905262000034916200032b565b6200004160008262000055565b506003805460ff1916600117905562000496565b6002815111620000ac5760405162461bcd60e51b815260206004820152601460248201527f4e65772073657420697320746f6f2073686f727400000000000000000000000060448201526064015b60405180910390fd5b60008054905b818110156200011f57600060016000808481548110620000d657620000d6620003fd565b6000918252602080832091909101546001600160a01b031683528201929092526040019020805460ff191691151591909117905580620001168162000413565b915050620000b2565b5081516200013590600090602085019062000277565b5060008054905b818110156200023557600160008583815181106200015e576200015e620003fd565b6020908102919091018101516001600160a01b031682528101919091526040016000205460ff1615620001d45760405162461bcd60e51b815260206004820152601760248201527f4475706c6963617465206f7261636c6520696e205365740000000000000000006044820152606401620000a3565b6001806000868481518110620001ee57620001ee620003fd565b6020908102919091018101516001600160a01b03168252810191909152604001600020805460ff1916911515919091179055806200022c8162000413565b9150506200013c565b507f9486a6c41bd991eda1bcabe983ebe4fe4a19b8109acdea68feebd49c8cc1d25a8484604051620002699291906200043d565b60405180910390a150505050565b828054828255906000526020600020908101928215620002cf579160200282015b82811115620002cf57825182546001600160a01b0319166001600160a01b0390911617825560209092019160019091019062000298565b50620002dd929150620002e1565b5090565b5b80821115620002dd5760008155600101620002e2565b634e487b7160e01b600052604160045260246000fd5b80516001600160a01b03811681146200032657600080fd5b919050565b600060208083850312156200033f57600080fd5b82516001600160401b03808211156200035757600080fd5b818501915085601f8301126200036c57600080fd5b815181811115620003815762000381620002f8565b8060051b604051601f19603f83011681018181108582111715620003a957620003a9620002f8565b604052918252848201925083810185019188831115620003c857600080fd5b938501935b82851015620003f157620003e1856200030e565b84529385019392850192620003cd565b98975050505050505050565b634e487b7160e01b600052603260045260246000fd5b60006000198214156200043657634e487b7160e01b600052601160045260246000fd5b5060010190565b6000604082018483526020604081850152818551808452606086019150828701935060005b81811015620004895784516001600160a01b03168352938301939183019160010162000462565b5090979650505050505050565b611fa380620004a66000396000f3fe608060405234801561001057600080fd5b50600436106100df5760003560e01c80639f208c0e1161008c578063c2c5e12911610066578063c2c5e12914610252578063ca3369c614610265578063cf1a0ce114610278578063e84b50291461029b57600080fd5b80639f208c0e14610209578063a2d7cab81461021c578063a97e5c931461022f57600080fd5b80636dd85ef9116100bd5780636dd85ef9146101cc57806375f2d82b146101df5780637ecd81a5146101f457600080fd5b8063181cdc42146100e457806350a814941461010a57806369d38e1c146101af575b600080fd5b6100f76100f236600461168a565b6102ae565b6040519081526020015b60405180910390f35b6100f7610118366004611791565b805160208083015160408085015160609586015180518186015191840151845161da7a81890152308187015246998101999099526001600160a01b0397881660808a01529690941660a088015260c087019190915260e086019290925261010085019190915267ffffffffffffffff9092166101208085019190915282518085039091018152610140909301909152815191012090565b6003546101bc9060ff1681565b6040519015158152602001610101565b6101bc6101da36600461185b565b6102fc565b6101e761037e565b60405161010191906118ba565b610207610202366004611919565b6103e0565b005b610207610217366004611993565b610491565b61020761022a366004611a9e565b6104df565b6101bc61023d36600461185b565b60016020526000908152604090205460ff1681565b6100f7610260366004611b09565b6107a0565b610207610273366004611bb2565b6107bd565b6101bc610286366004611be5565b60026020526000908152604090205460ff1681565b6102076102a9366004611bfe565b610d44565b6040805161b01260208201523091810191909152466060820152821515608082015260a0810182905260009060c0015b60405160208183030381529060405280519060200120905092915050565b6000816001600160a01b031663ce12cfc76040518163ffffffff1660e01b815260040160206040518083038186803b15801561033757600080fd5b505afa925050508015610367575060408051601f3d908101601f1916820190925261036491810190611c59565b60015b61037357506000919050565b92915050565b919050565b606060008054806020026020016040519081016040528092919081815260200182805480156103d657602002820191906000526020600020905b81546001600160a01b031681526001909101906020018083116103b8575b5050505050905090565b600061041f868686808060200260200160405190810160405280939291908181526020018383602002808284376000920191909152506107a092505050565b90506104348161042f8486611c76565b610e53565b600081815260026020908152604091829020805460ff19166001179055815186820281810183019093528681526104899289928991899182919085019084908082843760009201919091525061105e92505050565b505050505050565b600061049d85856102ae565b90506104ad8161042f8486611c76565b60009081526002602052604090208054600160ff19918216179091556003805490911694151594909417909355505050565b8060200151516041146105395760405162461bcd60e51b815260206004820152601f60248201527f45434453413a20696e76616c6964207369676e6174757265206c656e6774680060448201526064015b60405180910390fd5b60208082015190810151604082015160608301519192909160001a907f7fffffffffffffffffffffffffffffff5d576e7357a4501ddfe92f46681b20a08311156105eb5760405162461bcd60e51b815260206004820152602260248201527f45434453413a20696e76616c6964207369676e6174757265202773272076616c60448201527f75650000000000000000000000000000000000000000000000000000000000006064820152608401610530565b8160ff16601b148061060057508160ff16601c145b6106725760405162461bcd60e51b815260206004820152602260248201527f45434453413a20696e76616c6964207369676e6174757265202776272076616c60448201527f75650000000000000000000000000000000000000000000000000000000000006064820152608401610530565b60006040518060400160405280601c81526020017f19457468657265756d205369676e6564204d6573736167653a0a3332000000008152509050600081886040516020016106c1929190611d16565b60408051601f1981840301815282825280516020918201208a516000855291840180845281905260ff88169284019290925260608301899052608083018890529092506001600160a01b03169060019060a0016020604051602081039080840390855afa158015610736573d6000803e3d6000fd5b505050602060405103516001600160a01b0316146107965760405162461bcd60e51b815260206004820152600f60248201527f57726f6e67207369676e617475726500000000000000000000000000000000006044820152606401610530565b5050505050505050565b60006105e7304685856040516020016102de959493929190611d38565b60035460ff1661080f5760405162461bcd60e51b815260206004820152601a60248201527f4c6f636b2069732063757272656e746c792064697361626c65640000000000006044820152606401610530565b6001600160a01b0383166108655760405162461bcd60e51b815260206004820152601960248201527f6c6f636b3a2077726f6e6720746f6b656e2061646472657373000000000000006044820152606401610530565b6001600160a01b03831673582d872a1b094fc48f5de31d3b73f2d9be47def114156108d25760405162461bcd60e51b815260206004820152601460248201527f6c6f636b207772617070656420746f6e636f696e0000000000000000000000006044820152606401610530565b6001600160a01b0383167376a797a59ba2c17726896976b7b3747bfd1d220f141561093f5760405162461bcd60e51b815260206004820152601460248201527f6c6f636b207772617070656420746f6e636f696e0000000000000000000000006044820152606401610530565b610948836102fc565b156109955760405162461bcd60e51b815260206004820152601360248201527f6c6f636b2077726170706564206a6574746f6e000000000000000000000000006044820152606401610530565b6000836001600160a01b03166318160ddd6040518163ffffffff1660e01b815260040160206040518083038186803b1580156109d057600080fd5b505afa1580156109e4573d6000803e3d6000fd5b505050506040513d601f19601f82011682018060405250810190610a089190611d70565b90506effffffffffffffffffffffffffffff811115610a695760405162461bcd60e51b815260206004820152601c60248201527f4d617820746f74616c537570706c792032202a2a20313230202d2031000000006044820152606401610530565b6c10000000000000000000000000831115610ac65760405162461bcd60e51b815260206004820152601360248201527f4d617820616d6f756e742032202a2a20313030000000000000000000000000006044820152606401610530565b6040517f70a082310000000000000000000000000000000000000000000000000000000081523060048201526000906001600160a01b038616906370a082319060240160206040518083038186803b158015610b2157600080fd5b505afa158015610b35573d6000803e3d6000fd5b505050506040513d601f19601f82011682018060405250810190610b599190611d70565b9050610b706001600160a01b038616333087611263565b6040517f70a082310000000000000000000000000000000000000000000000000000000081523060048201526000906001600160a01b038716906370a082319060240160206040518083038186803b158015610bcb57600080fd5b505afa158015610bdf573d6000803e3d6000fd5b505050506040513d601f19601f82011682018060405250810190610c039190611d70565b9050818111610c7a5760405162461bcd60e51b815260206004820152602a60248201527f6e657742616c616e6365206d7573742062652067726561746572207468616e2060448201527f6f6c6442616c616e6365000000000000000000000000000000000000000000006064820152608401610530565b836001600160a01b038716337f09f473b3798b7da9b4b21c5394da2d17389ded2d05d710d3c36f352f9471e895610cb18686611db8565b8a6001600160a01b031663313ce5676040518163ffffffff1660e01b815260040160206040518083038186803b158015610cea57600080fd5b505afa158015610cfe573d6000803e3d6000fd5b505050506040513d601f19601f82011682018060405250810190610d229190611dcf565b6040805192835260ff90911660208301520160405180910390a4505050505050565b6000610d5861011836869003860186611791565b9050610d688161042f8486611c76565b6000818152600260209081526040909120805460ff19166001179055610db890610d949086018661185b565b60408601803590610da8906020890161185b565b6001600160a01b0316919061131a565b610dc5602085018561185b565b6001600160a01b03166080850135610de3604087016020880161185b565b6001600160a01b03167f059d6c7bd52b4f354001dcc692982bd0c534d182028391f4daf456b9f41296ba6060880135610e2260c08a0160a08b01611df2565b6040805192835267ffffffffffffffff9091166020830152808a01359082015260600160405180910390a450505050565b600054600390610e64906002611e0d565b610e6f906002611e4a565b610e799190611e62565b81511015610ec95760405162461bcd60e51b815260206004820152601560248201527f4e6f7420656e6f756768207369676e61747572657300000000000000000000006044820152606401610530565b60008281526002602052604090205460ff1615610f285760405162461bcd60e51b815260206004820152601860248201527f566f746520697320616c72656164792066696e697368656400000000000000006044820152606401610530565b80516000805b82811015611057576000848281518110610f4a57610f4a611e9d565b602090810291909101810151516001600160a01b0381166000908152600190925260409091205490915060ff16610fc35760405162461bcd60e51b815260206004820152601360248201527f556e617574686f72697a6564207369676e6572000000000000000000000000006044820152606401610530565b6001600160a01b03811683811161101c5760405162461bcd60e51b815260206004820152601960248201527f5369676e61747572657320617265206e6f7420736f72746564000000000000006044820152606401610530565b8093506110428787858151811061103557611035611e9d565b60200260200101516104df565b5050808061104f90611ecc565b915050610f2e565b5050505050565b60028151116110af5760405162461bcd60e51b815260206004820152601460248201527f4e65772073657420697320746f6f2073686f72740000000000000000000000006044820152606401610530565b60008054905b8181101561111b576000600160008084815481106110d5576110d5611e9d565b6000918252602080832091909101546001600160a01b031683528201929092526040019020805460ff19169115159190911790558061111381611ecc565b9150506110b5565b50815161112f9060009060208501906115e7565b5060008054905b81811015611223576001600085838151811061115457611154611e9d565b6020908102919091018101516001600160a01b031682528101919091526040016000205460ff16156111c85760405162461bcd60e51b815260206004820152601760248201527f4475706c6963617465206f7261636c6520696e205365740000000000000000006044820152606401610530565b60018060008684815181106111df576111df611e9d565b6020908102919091018101516001600160a01b03168252810191909152604001600020805460ff19169115159190911790558061121b81611ecc565b915050611136565b507f9486a6c41bd991eda1bcabe983ebe4fe4a19b8109acdea68feebd49c8cc1d25a8484604051611255929190611f05565b60405180910390a150505050565b6040516001600160a01b03808516602483015283166044820152606481018290526113149085907f23b872dd00000000000000000000000000000000000000000000000000000000906084015b60408051601f198184030181529190526020810180517bffffffffffffffffffffffffffffffffffffffffffffffffffffffff167fffffffff0000000000000000000000000000000000000000000000000000000090931692909217909152611368565b50505050565b6040516001600160a01b0383166024820152604481018290526113639084907fa9059cbb00000000000000000000000000000000000000000000000000000000906064016112b0565b505050565b60006113bd826040518060400160405280602081526020017f5361666545524332303a206c6f772d6c6576656c2063616c6c206661696c6564815250856001600160a01b031661144d9092919063ffffffff16565b80519091501561136357808060200190518101906113db9190611c59565b6113635760405162461bcd60e51b815260206004820152602a60248201527f5361666545524332303a204552433230206f7065726174696f6e20646964206e60448201527f6f742073756363656564000000000000000000000000000000000000000000006064820152608401610530565b606061145c8484600085611466565b90505b9392505050565b6060824710156114de5760405162461bcd60e51b815260206004820152602660248201527f416464726573733a20696e73756666696369656e742062616c616e636520666f60448201527f722063616c6c00000000000000000000000000000000000000000000000000006064820152608401610530565b6001600160a01b0385163b6115355760405162461bcd60e51b815260206004820152601d60248201527f416464726573733a2063616c6c20746f206e6f6e2d636f6e74726163740000006044820152606401610530565b600080866001600160a01b031685876040516115519190611f1e565b60006040518083038185875af1925050503d806000811461158e576040519150601f19603f3d011682016040523d82523d6000602084013e611593565b606091505b50915091506115a38282866115ae565b979650505050505050565b606083156115bd57508161145f565b8251156115cd5782518084602001fd5b8160405162461bcd60e51b81526004016105309190611f3a565b828054828255906000526020600020908101928215611654579160200282015b8281111561165457825182547fffffffffffffffffffffffff0000000000000000000000000000000000000000166001600160a01b03909116178255602090920191600190910190611607565b50611660929150611664565b5090565b5b808211156116605760008155600101611665565b801515811461168757600080fd5b50565b6000806040838503121561169d57600080fd5b82356116a881611679565b946020939093013593505050565b7f4e487b7100000000000000000000000000000000000000000000000000000000600052604160045260246000fd5b6040516060810167ffffffffffffffff81118282101715611708576117086116b6565b60405290565b6040805190810167ffffffffffffffff81118282101715611708576117086116b6565b604051601f8201601f1916810167ffffffffffffffff8111828210171561175a5761175a6116b6565b604052919050565b80356001600160a01b038116811461037957600080fd5b803567ffffffffffffffff8116811461037957600080fd5b600081830360c08112156117a457600080fd5b6040516080810181811067ffffffffffffffff821117156117c7576117c76116b6565b6040526117d384611762565b81526117e160208501611762565b60208201526040840135604082015260607fffffffffffffffffffffffffffffffffffffffffffffffffffffffffffffffa08301121561182057600080fd5b6118286116e5565b9150606084013582526080840135602083015261184760a08501611779565b604083015260608101919091529392505050565b60006020828403121561186d57600080fd5b61145f82611762565b600081518084526020808501945080840160005b838110156118af5781516001600160a01b03168752958201959082019060010161188a565b509495945050505050565b60208152600061145f6020830184611876565b60008083601f8401126118df57600080fd5b50813567ffffffffffffffff8111156118f757600080fd5b6020830191508360208260051b850101111561191257600080fd5b9250929050565b60008060008060006060868803121561193157600080fd5b85359450602086013567ffffffffffffffff8082111561195057600080fd5b61195c89838a016118cd565b9096509450604088013591508082111561197557600080fd5b50611982888289016118cd565b969995985093965092949392505050565b600080600080606085870312156119a957600080fd5b84356119b481611679565b935060208501359250604085013567ffffffffffffffff8111156119d757600080fd5b6119e3878288016118cd565b95989497509550505050565b600060408284031215611a0157600080fd5b611a0961170e565b9050611a1482611762565b815260208083013567ffffffffffffffff80821115611a3257600080fd5b818501915085601f830112611a4657600080fd5b813581811115611a5857611a586116b6565b611a6a84601f19601f84011601611731565b91508082528684828501011115611a8057600080fd5b80848401858401376000908201840152918301919091525092915050565b60008060408385031215611ab157600080fd5b82359150602083013567ffffffffffffffff811115611acf57600080fd5b611adb858286016119ef565b9150509250929050565b600067ffffffffffffffff821115611aff57611aff6116b6565b5060051b60200190565b60008060408385031215611b1c57600080fd5b8235915060208084013567ffffffffffffffff811115611b3b57600080fd5b8401601f81018613611b4c57600080fd5b8035611b5f611b5a82611ae5565b611731565b81815260059190911b82018301908381019088831115611b7e57600080fd5b928401925b82841015611ba357611b9484611762565b82529284019290840190611b83565b80955050505050509250929050565b600080600060608486031215611bc757600080fd5b611bd084611762565b95602085013595506040909401359392505050565b600060208284031215611bf757600080fd5b5035919050565b600080600083850360e0811215611c1457600080fd5b60c0811215611c2257600080fd5b5083925060c084013567ffffffffffffffff811115611c4057600080fd5b611c4c868287016118cd565b9497909650939450505050565b600060208284031215611c6b57600080fd5b815161145f81611679565b6000611c84611b5a84611ae5565b80848252602080830192508560051b850136811115611ca257600080fd5b855b81811015611cde57803567ffffffffffffffff811115611cc45760008081fd5b611cd036828a016119ef565b865250938201938201611ca4565b50919695505050505050565b60005b83811015611d05578181015183820152602001611ced565b838111156113145750506000910152565b60008351611d28818460208801611cea565b9190910191825250602001919050565b61ffff861681526001600160a01b038516602082015283604082015282606082015260a0608082015260006115a360a0830184611876565b600060208284031215611d8257600080fd5b5051919050565b7f4e487b7100000000000000000000000000000000000000000000000000000000600052601160045260246000fd5b600082821015611dca57611dca611d89565b500390565b600060208284031215611de157600080fd5b815160ff8116811461145f57600080fd5b600060208284031215611e0457600080fd5b61145f82611779565b6000817fffffffffffffffffffffffffffffffffffffffffffffffffffffffffffffffff0483118215151615611e4557611e45611d89565b500290565b60008219821115611e5d57611e5d611d89565b500190565b600082611e98577f4e487b7100000000000000000000000000000000000000000000000000000000600052601260045260246000fd5b500490565b7f4e487b7100000000000000000000000000000000000000000000000000000000600052603260045260246000fd5b60007fffffffffffffffffffffffffffffffffffffffffffffffffffffffffffffffff821415611efe57611efe611d89565b5060010190565b82815260406020820152600061145c6040830184611876565b60008251611f30818460208701611cea565b9190910192915050565b6020815260008251806020840152611f59816040850160208701611cea565b601f01601f1916919091016040019291505056fea264697066735822122001b1654ffddc8288227d1c76b00ef884894bb3fac4817c86ba424fafba0f07b264736f6c63430008090033",
  "linkReferences": {},
  "deployedLinkReferences": {}
}